:0400000002001332B5
:03000B0002011ED1
:07006C007508307509FF75EE
:070073000A38750BFFE4F5EC
:04007A0012F51375F3
:06007E0014007515007569
:060084001600751700755F
:06008A001800751900C208
:0300900003C204A4
:0300930002000E5A
:05000E0012041A80FE3F
:0A009600AA19BA02357403B5183038
:0A00A0007405B5172B7409B5162678
:0A00AA007405B515217409B5141C86
:0400B4007B007C0051
:0D00B800C3EB9406EC64809480505AEB2456
:0B00C50014F876000BBB00EB0C80E889
:0800D000AB140B8B14BB0A00FA
:0A00D8004009751400E515FB04F55E
:0100E2001508
:0A00E30074FA25155009E516FB0418
:0500ED00F51675150079
:0A00F20074F625165009751600E596
:0500FC0017FB04F517DD
:0A01010074FA25175009751700E580
:05010B0018FB04F518CB
:0A01100074F625185007751800EA70
:03011A0004F519D0
:01011D0022BF
:09011E00758CFC758A66D203326F
:0E012700D2AFD2A9758901758CFC758A66D29B
:020135008C221A
:09013700AA140A8A14BA144175D5
:06014000140AAA150A8A48
:0A014600157B00EA24F6F51AEB34ED
:0C015000FFF51B90000A12047AAA82AB93
:0C015C0083AC147D00EC24F6FCED34FFB5
:0E016800FDEC2AFAED3BFBC3EA943CEB64800D
:0A0176009480400675140A75150AFE
:01018000225C
:09018100AA14BA0A11751413AB9B
:08018A0015BB0A0475150F22D4
:05019200EB14F515223D
:05019700EA14F514223A
:09019C00AA160A8A16BA1441756C
:0601A500160AAA170A8ADF
:0A01AB00177B00EA24F6F51AEB3486
:0C01B500FFF51B90000A12047AAA82AB2E
:0C01C10083AC167D00EC24F6FCED34FF4E
:0E01CD00FDEC2AFAED3BFBC3EA943CEB6480A8
:0A01DB009480400675160A75170A95
:0101E50022F7
:0901E600AA16BA0A11751613AB32
:0801EF0017BB0A0475170F226B
:0501F700EB14F51722D6
:0501FC00EA14F51622D3
:09020100AA180A8A18BA1409753A
:07020A00180AE519FA04F5DA
:0102110019D3
:0A021200AA197B00EA24F6F51AEBA6
:0C021C0034FFF51B90000A12047AAA823D
:0C022800AB83AC187D00EC24F6FCED3438
:0E023400FFFDEC2AFAED3BFBC3EA9418EB64E5
:0A024200809480400675180A7519B3
:01024C000AA7
:01024D00228E
:09024E00AA18BA0A14751813ABC2
:0802570019BB0A0775190C75AB
:03025F00180D2255
:05026200EB14F5192268
:05026700EA14F5182265
:06026C00850D0C7401B5C4
:070272000C52100402803B56
:09027900E511700EE51424F6F500
:0602820014E51524F6F559
:03028800158024BA
:0A028B007401B5110EE51624F6F516
:0602950016E51724F6F542
:03029B00178011B8
:0A029E007402B5110CE51824F6F502
:0602A80018E51924F6F52B
:0102AE001936
:0502AF00751100801232
:0902B40020040F1203D0740A2586
:0602BD0014F514740A257B
:0302C30015F51519
:0402C60020040122ED
:0A02CA007404B50C5EE511701D759B
:0702D4001102E51424F6F508
:0602DB0014E51524F6F500
:0602E10015740A2518F552
:0602E70018740A2519F548
:0302ED0019803D38
:0902F0007401B5111D751100E542
:0602F9001624F6F516E5DF
:0802FF001724F6F517740A2517
:0603070014F514740A2530
:05030D0015F515801B31
:08031200751101E51824F6F550
:06031A0018E51924F6F5B8
:0603200019740A2516F510
:0603260016740A2517F50C
:01032C0017B9
:0A032D007420B50C5F7402B5111DB9
:08033700751100E51924F6F52B
:06033F0019E51824F6F593
:0603450018740A2514F5EE
:06034B0014740A2515F5EB
:0303510015803DD7
:090354007401B5111D751102E5DB
:06035D001624F6F516E57A
:080363001724F6F517740A25B2
:06036B0018F518740A25C4
:0503710019F519801BC5
:08037600751101E51424F6F5F0
:06037E0014E51524F6F55C
:0603840015740A2516F5B0
:06038A0016740A2517F5A8
:010390001755
:090391007408B50C1A300417E5DC
:06039A001170031201378F
:0803A0007401B5110312019C68
:0803A8007402B51103120201F9
:0903B0007410B50C1A300417E5B5
:0603B90011700312018126
:0803BF007401B511031201E6FF
:0803C7007402B5110302024E9D
:0103CF00220B
:0603D00020040AD2042003
:0603D6000305E4F512F539
:0103DC00130D
:0103DD0022FD
:0903DE00D296850882850983E5A9
:0503E7000FF0AA0AABB3
:0403EC000BE50E24EB
:0C03F00014F8E690049B93FC8A828B8337
:0503FC00F0850F1085E3
:07040100100DC2967405B551
:060408000E07750E0075E1
:03040E000F0122B9
:05041100050EE50F25BA
:040416000FF50F22AD
:07041A00750E00750F01755E
:060421001001751100C27C
:0504270004750C0075D6
:05042C000D0012012784
:0504310010030280FB36
:0B0436001203DE30B509E50C70051262
:04044100026C800BBE
:0904450020B508E50DB50C0375A6
:02044E000C00A0
:090450003004087405B50E031216
:0204590003D0CE
:07045B002004D30512E4B5F3
:04046200120205136A
:0A04660074E8B512C67403B513C1A3
:06047000E4F512F5131281
:04047600009680B7B5
:0E049B003F065B4F666D7D077F6FBF86DBCF30
:0604A900E6EDFD87FFEF08
:06004200E47801F6D8FD90
:080020007900E94400601B7A3D
:05002800009004AF7818
:03002D000075A0BB
:0A00300000E493F2A308B8000205F3
:08003A00A0D9F4DAF275A0FF71
:0B047A00E582851AF0A4C582C0F08561
:0A0485001BF0A4D0F025F0C583851C
:08048F001AF0A42583F5832275
:080048007800E84400600A7929
:030050000075A098
:0600530000E4F309D8FCF3
:080059007800E84400600C7916
:0B00610000900000E4F0A3D8FCD9FAE6
:03001300758120D4
:0A001600120497E582600302000E59
:040497007582002248
:00000001FF
